:020000040000FA
:020000000D28C9
:080008000C08FB0000000000E1
:1000100000000C08FF008B10090021000030950043
:100020002100F03099002100FF308C000F308D004E
:1000300022008C018D0123008C018D012100910192
:100040002100920120002000A301A401A5018D1D23
:100050002E28210040309500200020000000A30B36
:100060002E28A40B2E288B018B100B168B1720002B
:100070000D1603018720FB01FF01FA019D20A30358
:10008000031999208D19ED208D1D0D1D49280C088F
:10009000FB007B087A06031D51287F087E060319A2
:1000A0003F287B08FA007F08FE000130A00087305F
:1000B000850087007A0E692084007E0E6920860004
:1000C0006E207A08692084007E08692086006E20F0
:1000D0003F280F3989358935003E08007720A00A6E
:1000E0007720A00A7720A00A7720A00A0800120033
:1000F000A1001600A2000D122008F900FC008720C4
:100100002108F9002208FC0087200D16080008309D
:10011000F90D031C0D1303180D17FC0D031C8D1393
:1001200003188D179620890B882808008D168D12CC
:100130000800A40B0800A50B08000F30A000003039
:10014000A100A2007B200B30A0000730A100A2007C
:100150007B200A30A0000430A100A2007B200930DF
:10016000A0000030A100A2007B200C30A0000130D4
:10017000A100A2007B200130A0000130A100A2005C
:100180007B200230A0000330A100A2007B200330BE
:10019000A0000730A100A2007B200430A0000F3097
:1001A000A100A2007B200530A0001F30A100A2000A
:1001B0007B200630A0003F30A100A2007B2007304A
:1001C000A0007F30A100A2007B200830A000FF30FB
:1001D000A100A2007B20FA0908000D080639A6003C
:1001E00028060319F8282608A800FF30A7000800F1
:1001F000270803190800A70B08000130A00087306A
:1002000085008700283589358935403E8400083EC1
:0C02100086006E206E200430A50008005F
:100E00003E34413441343E34003420347F340034A5
:100E1000273449344934313422344934493436345E
:100E20007834083408347F347A34493449344634C9
:100E30003E34493449342634603440344F347034BD
:100E400036344934493436343234493449343E3402
:100E50003F34483448343F347F344934493436349D
:100E60003E344134413422347F34413441343E34C1
:100E70007F344934493441347F3448344834403431
:100E80003E344134413422347F340134013401345E
:100E90007F344C344A34313400340034003400346C
:100EA0007F344C344A3431347E34013401347E345E
:100EB0007F3430340E347F34003400340034003456
:100EC0007F340134013401343E34413441343E3402
:100ED0003F34483448343F347F34413441343E3425
:100EE0007F344834483430343F34483448343F3415
:100EF0007E34013401347E3432344934493426346A
:020000040001F9
:02000E00A40943
:02001000FF1DD2
:08E000004D00430048005000F0
:00000001FF
