:180000007BF800B1F827A1E2F87FB2A2F800B4B5B7B8F832A4F844A5D8
:18001800F853A7F87AA8F801B3F800A3D3727022782252226F121930CE
:1800300025D3BFE28673967383A693B646B346A39F3031D3BF96B38668
:18004800A31242B6E2F0A69F3043D3BFF809AF9FFE76335F7A30627BFB
:18006000306276BF2F8F326C9FC4305A9F9F9FC47BC4C4C4C4C4C43094
:1800780052D3F808AFF8003D7FC4C4C4C4358BF980308DBEBEF6BE2F83
:180090008F32969E30849E9EC4359DF980BE307973F6F6F6F6D400AC32
:1700A80060F0FA0F73FF0A3BB7FC41D760F0D5FC0AF930D760F0D516
:18010000F800AE1E8E3A03D40AB50D0A4879706572626F61726420542A
:180118006573742076312E300D0A3E2000D40AB50D0A0D0A442044750B
:180130006D700D0A4D204D6F646966790D0A5820655865637574650D7F
:180148000A4920496E7075740D0A4F204F75747075740D0A52205265C5
:18016000676973746572730D0A51204546780D0A5020506172616C6C18
:18017800656C20506F72740D0A55205541525420506F72740D0A3E20D7
:1801900000D89EBCF920FB6DC20913FB15C20A9BFB1CC20700FB0DC2A5
:1801A8000600FB06C20639FB1DC20800FB03C20500FB01C20400FB05CE
:0501C000C20200302521
:18020000F800526522F819526322F899526322F800BCD40AB5535420B7
:180218002054582D53542020535420205258202053540D0A00D40AB5CC
:180230002020006BF0D400A09C5262226B22D40AB52020009CD400A0C5
:18024800D40AB52D0060F0D400A0D40AB52020006BF0D400A0D40AB5E5
:180260002020006AF0D400A0D40AB52020006BF0D400A0D40AB50D0036
:180278001C8C3A789C3A2DD40AB50D0A5354202054582D53542020546C
:18029000582D53542D53542D53542D53542D5354202053540D0A006B71
:1802A80022F8FF5262226B22F8FF5262226B22F834FF013AB96B22F8C4
:1802C00020FF013AC16B22F817FF013AC96B22F810FF013AD16B2282BD
:1802D800AD92BD1D1D1D1D1D1D1D0DD400A0D40AB5202046462D002D0D
:1802F0000DD400A0D40AB5202046462D002D0DD400A0D40AB52D002D4E
:180308000DD400A0D40AB52D002D0DD400A0D40AB52D002D0DD400A080
:18032000D40AB52D002D0DD400A0D40AB52020006BF0D400A0D40AB522
:060338000D0A00C00125C2
:18040000F801BCD40AB54F55542045463320494E2045463320494E5426
:180418000D0A009C5267229CD400A0D404486FF0D400A0D4044889D4BE
:1804300000A0D40AB50D202020001C1C1C1C1C1C1C1C9C3A1BC001255D
:170448003655D40AB5202030202000305ED40AB5202031202000D528
:18050000F80ABCD40AB545463120454632204546332045463420494E85
:18051800540D0A00342BD40AB520202020302020003036D40AB5202045
:180530002020312020003542D40AB52030202000304AD40AB5203120EA
:1805480020003656D40AB52030202000305ED40AB52031202000376A79
:18056000D40AB520302020003072D40AB5203120200089D400A0D40ABF
:0A057800B50D002C9C3A1CC00125B3
:18060000D40AB5496E70757400D40A00D40AB5203D200092BF82AF1FB0
:180618001FF8D35F8DFA07F9682F5FDFD400A0D40AB51B5B3244009C96
:180630002CFEFEFE3B13C00125D40AB54F757470757400D40A00D40A78
:18064800B5203A00F802D40A79D40A3BBDF8D3739D738DFA07F96052DD
:0D066000D2C00125526422D56CD40664D5A9
:18070000D40AB544756D7000D40A15C30125D40ABFF810ACF810AB9D3B
:18071800D400A08DD400A0F83AD7F820D74DD400A02B8B3A22D40ABFEC
:180730002C8C3A14D40AB5456E746572206F722045736300D8FB0D32CC
:0C0748000E9EFB1BC20125F807D73044B1
:18080000D40AB50D0A52303A0090D400A080D400A0D40AB5202052312C
:180818003A0091D400A081D400A0D40AB5202052323A0092D400A0827B
:18083000D400A0D40AB5202052333A0093D400A083D400A0D40AB50D0C
:180848000A52343A0094D400A084D400A0D40AB5202052353A0095D4D1
:1808600000A085D400A0D40AB5202052363A0096D400A086D400A0D47A
:180878000AB5202052373A0097D400A087D400A0D40AB50D0A52383A32
:180890000098D400A088D400A0D40AB5202052393A0099D400A089D446
:1808A80000A0D40AB5202052413A009AD400A08AD400A0D40AB5202019
:1808C00052423A009BD400A08BD400A0D40AB50D0A52433A009CD4005B
:1808D800A08CD400A0D40AB5202052443A009DD400A08DD400A0D40AD5
:1808F000B5202052453A009ED400A08ED400A0D40AB5202052463A0071
:180908009FD400A08FD400A0C00125D40AB5456E74657200D40A15C394
:180920000125D40ABF9DD400A08DD400A0F803D40A910DD400A0F83ACD
:18093800D7F802D40A79D40A3B33515D1D8DFA073222F804D40A9130EB
:0B09500032FB1BC20125D40ABF30227D
:180A0000D40AB50D0A506F72743A00F801D40A79D40A4DADD5D40AB5C5
:180A18000D0A416464726573733A00F804D40A79D40A3B333ABDD40A3B
:180A30003B333AADD40AB50D0A00D5D40A4D334CFEFEFEFE73D40A4D9A
:180A480060334CF1D5D873FF303B70FF0A3B69FF073B70FF063B67FFC8
:180A60001A3B70FF063370FC06FC0AD400AC60D5F807D7F801F660F03F
:180A7800D573D40AB55F00FF013A7A60F0D40AB51B5B4400FF013A851C
:180A9000D5D40AB52000FF013A91D5D40AB52052756E00D40A159DB0FE
:180AA8008DA0F8FFA1F80FB1F800A8E0D0734632BCD730B660F0D5D40C
:060AC0000AB50D0A00D585
:00000001FF
